:1000000038C047C046C045C044C043C042C041C0DC
:1000100040C03FC03EC0CFC03CC03BC03AC039C06A
:1000200038C037C036C035C034C033C032C031C02C
:1000300030C02FC02EC02DC02CC02BC000003A00F5
:10004000370000003B003800000039003600010195
:100050000101010101010202020201020408102053
:1000600040800402010800000000000000000000C1
:10007000000011241FBECFEFD2E0DEBFCDBF21E0D4
:10008000A0E0B1E001C01D92A930B207E1F7DDD0D8
:100090004CC1B6CF833079F028F4813081F08230C2
:1000A00089F00895873091F08830A1F08430B9F458
:1000B0008FB58F7D02C08FB58F778FBD089580B7C4
:1000C0008F7702C080B78F7D80BF08958091CA006E
:1000D0008F7703C08091CA008F7D8093CA000895F6
:1000E0001F93CF93DF93282F30E0F901EA59FF4F98
:1000F0008491F901E65AFF4FD491F901E25BFF4F79
:10010000C491CC23C1F0162F8111C4DFEC2FF0E095
:10011000EE0FFF1FEE5BFF4FA591B4918FB7F894E0
:10012000111105C09C91ED2FE095E92302C0EC91DF
:10013000ED2BEC938FBFDF91CF911F910895CF935B
:10014000DF9390E0FC01E65AFF4F2491FC01E25B53
:10015000FF4F8491882361F190E0880F991FFC0183
:10016000E45CFF4FC591D491FC01EE5BFF4FA5917C
:10017000B491611109C09FB7F894888120958223BA
:100180008883EC912E230BC0623061F49FB7F89402
:100190003881822F809583238883EC912E2B2C939A
:1001A0009FBF06C08FB7F894E8812E2B28838FBF9E
:1001B000DF91CF9108951F920F920FB60F921124E5
:1001C0002F933F938F939F93AF93BF93809105019C
:1001D00090910601A0910701B091080130910401AE
:1001E00026E0230F2D3720F40296A11DB11D05C076
:1001F00029E8230F0396A11DB11D209304018093CC
:10020000050190930601A0930701B0930801809126
:10021000000190910101A0910201B09103010196AA
:10022000A11DB11D8093000190930101A0930201D3
:10023000B0930301BF91AF919F918F913F912F9107
:100240000F900FBE0F901F901895789480B7826022
:1002500080BF80B7816080BF83B7826083BF83B770
:10026000816083BF89B7816089BF1EBC8EB5826003
:100270008EBD8EB581608EBD8FB581608FBD809142
:10028000C90084608093C9008091CA008160809316
:10029000CA002A9A299A28982F9A1092850061E01C
:1002A00088E04DDF61E088E01BDF61E083E047DF4D
:1002B00060E083E015DF62E080E041DF8091630071
:1002C000816080936300C6E6D0E00AE510E03EE47A
:1002D000E32E30E0F32E40E0C42E40E0D42EFE01A9
:1002E0008491F801A490F701B490BB2071F08111C2
:1002F000D1DE8B2D90E0880F991F885B9F4FFC010A
:10030000A591B4918C91A82229F460E088E0E8DE00
:1003100061E004C061E088E0E3DE60E083E0E0DE0D
:0E032000C114D104E1F26CDEDACFF894FFCF05
:00000001FF
