:1000000035C044C043C042C041C040C03FC03EC0F4
:100010003DC03CC03BC0FEC039C038C037C036C050
:1000200035C034C033C032C031C030C02FC02EC044
:100030002DC02CC02BC02AC029C028C00000000041
:10004000000000000000000000003B00380000003D
:100050003A0037000101010101010101020202021F
:1000600001020408102040800402010811241FBE70
:10007000CFEFD2E0DEBFCDBF21E0A0E0B1E001C014
:100080001D92A930B207E1F70FD156C1B9CF90E068
:10009000FC01E05AFF4F2491FC01EC5AFF4F849180
:1000A000882399F090E0880F991FFC01E25BFF4FD5
:1000B000A591B491FC01E85BFF4F859194918FB7B6
:1000C000F894EC91E22BEC938FBF089590E0FC0143
:1000D000E45CFF4F3491FC01E05AFF4F2491FC0196
:1000E000EC5AFF4FE491EE23C1F1332321F1333079
:1000F00089F038F4313091F03230E9F480B78F7DF7
:100100000FC0373079F0383089F03430A1F48FB532
:100110008F7D02C08FB58F778FBD0DC080B78F7771
:1001200080BF09C08091CA008F7703C08091CA0048
:100130008F7D8093CA00F0E0EE0FFF1FE85BFF4F5A
:10014000A591B4918FB7F894EC91611103C02095FB
:100150002E2301C02E2B2C938FBF08953FB7F89408
:100160008091050190910601A0910701B0910801CD
:1001700022B708B600FE05C02F3F19F00196A11D59
:10018000B11D3FBFBA2FA92F982F8827820F911D2D
:10019000A11DB11DBC01CD0143E0660F771F881F73
:1001A000991F4A95D1F708958F929F92AF92BF926F
:1001B000CF92DF92EF92FF92D1DF4B015C0188EE8C
:1001C000C82E83E0D82EE12CF12CC8DFDC01CB0156
:1001D00088199909AA09BB09883E9340A105B10570
:1001E00058F021E0C21AD108E108F10888EE880E23
:1001F00083E0981EA11CB11CC114D104E104F104D8
:1002000021F7FF90EF90DF90CF90BF90AF909F903D
:100210008F9008951F920F920FB60F9211242F9373
:100220003F938F939F93AF93BF93809101019091E0
:100230000201A0910301B09104013091000126E078
:10024000230F2D3720F40296A11DB11D05C029E80A
:10025000230F0396A11DB11D20930001809301017E
:1002600090930201A0930301B093040180910501D2
:1002700090910601A0910701B09108010196A11D7E
:10028000B11D8093050190930601A0930701B093DF
:100290000801BF91AF919F918F913F912F910F9046
:1002A0000FBE0F901F901895789480B7826080BF22
:1002B00080B7816080BF83B7826083BF83B781606E
:1002C00083BF89B7816089BF1EBC8EB582608EBD39
:1002D0008EB581608EBD8FB581608FBD8091C90064
:1002E00084608093C9008091CA0081608093CA00B5
:1002F0002A9A299A28982F9A1092850088E0C7DEBA
:1003000060E088E0E3DE83E0C2DE60E083E0DEDE22
:10031000C0E0D0E060E088E0D9DE61E083E0D6DED6
:1003200043DF61E088E0D2DE60E083E0CFDE3CDFE7
:0C033000209781F365DEEECFF894FFCF3C
:00000001FF
