:20000000BFCCAEC9ADC9ACC9ABC9AAC9A9C9A8C9A7C9A6C9A5C978CAA3C9A2C9A1C9A0C9F0
:200020009FC99EC99DC99CC99BC99AC999C998C997C996C995C994C993C992C9848249001C
:20004000000020004924800000124924AA4824900000020004924800000124924B35003B1C
:20006000003500AB003500FD08370000007C03C2017F03C0016012490000090000492480F9
:200080000000124924A80124900000900004924800000124924835003B003500AB00350092
:2000A000FD087C03C2017F03C0016090002410000492000000492A0240009040001248001D
:2000C0000001248009244948B49244948C0D00E5020F00E9010F00E40211002112120000DB
:2000E0000022200017222000141C006A001C00EE001C0072011C009504A0104004820924DA
:2001000082400010092A38006400082482092410010A1000209208249040041058005A00C4
:20012000580002015800C70866015D0166015E01A492492000000002000490492A38406032
:2001400002080002490412490A000820000924104924001B5972006400730064007300C8B3
:20016000007300920AA410002082490002000490492A3840A00248049001208040041209D2
:200180002A38008000480492012000000492492ABA0036003800360097003600FC0F360009
:2001A000E5218403A5018503E200A002480490012012400480092A380080000000124924C3
:2001C000900A80000000124924900B50005F005000F90050001B0F5100000049014201A0FB
:2001E00000400492092002000490492A3800A012000480492492400000092A3800A010002F
:200200000482492002000490492A380037003F003700AB003700FE0F370024257103DB0043
:200220007103B6018490492002000492000000492ABA4084000008124001D2000004092033
:2002400000403100360031009E003100A40131008E093303A4013503A301A0004004920954
:200260002400400092092A38006082002080410490412A020800820104124104805100564C
:2002800000510028015100150D48014B0149014B0184104008820801D2082004410400405C
:2002A0002C0032002C0093002C00BF012C00BC0817038E0119038D01600000200209040261
:2002C000010090482A00000080082410080402412080380036003800A6003800690F8003F1
:2002E000BA018003BB01A400000092492400000092492B3D00849249200000049200000009
:20030000492ABA40A480002012490002000490492A3840A000082492410082000410492EA4
:2003200028003A003D003A00D3003A006E25490044107303D3001A04EE0180904000904031
:200340000492000000492A97488000000000000492000000492A9748800200049049249238
:20036000000000492ABA00A480002012490492492000000A3840A40049009200200200048B
:2003800090492A38408002000002000492000000492A97486402080002090412490A10087C
:2003A0002000082410492410560057005600020156000A0D5A015C015C015B01A0000904D3
:2003C00092402000000492492B3D0029596555EA565955702B00AB002D003C002D00AA0034
:2003E0003600FD088000000412482400000092492ABA00A000000492492400410092082B58
:200400003D008480002410410080012412480ABA408080400492492092000400492ABA0021
:200420008002000002000482000010492A170838003A003800AE003800C5113800E824B8AE
:2004400001BE0110946231984A3118006090002080000402010090482A024000820000100D
:20046000080402412080370039003700A700370030117F03C0018103BF01D100110004005A
:2004800011556D1001100040011555360038003600AA0036003F13C301BF01D541514014A8
:2004A000042D541514014041300064003000C80030001A049001900110AB118CC2AC460004
:2004C00058005A0058005B005800B50058001023B1005B00B100B500A0020004904920808E
:2004E000400412092B3D008000400412080492400000092ABA00A0024004900920020004EF
:2005000090492A3800380045003800AE0038004510380071257003DE007003B30160820880
:200520002082410492002080400090400400412A020820820904124800820100024100103A
:200540000104802A002E002A007E002A004D1B5B01B0005B01B1006400000000400080A1A6
:20056000000000001000201037003C003700A5003700EC08BD01B501C001B40160800000F7
:2005800000080000402000000412480412082A0200000000200001008000001049201048D9
:2005A000208029002B00290080002900341D5001AB005201A9001092494633092494600A9D
:2005C00012492AB2A12492A85800590058005A005800B3005800B822B1005A00B100B300D6
:2005E0001846186847184618684430003400300099013000F8013000FA26815040B815042B
:2006000008A082082410410490082002410A380080450401141004504028001301A0009AFA
:2006200000E0019B0010A262319851311800A092090400402010400482092A380060000186
:200640000410492482082A000004104124920820A0330062003300C2006600A303860186EF
:200660000186018701A400410092082002000490492A3840A08208241041000000249249AC
:200680000A3800A090000090000010400482092A380011402500B50025001001400208A2CA
:2006A000E0008228401B004C001B00B6001B00B7001B007F0CA0000004924924820000108B
:2006C000492A38008C300DCC300C2B0079002B00DD2482002D0083002D00800249249000F0
:2006E0000080000412492ABA00C0450201140804500026001401A5009A009F019B00E60222
:200700009A008492012412000480080992480490480012002026492012412000480080802B
:20072000300062003000C50062004E038B018801A1078801C001515554042C00151555408F
:2007400040A492492000000492480000012A3840A002080490412482000010492A3800A0B9
:2007600000082492410482000010492A3800A000080492412400400092092A3800A412099A
:200780000080402010400482092A38408DA4080404924C160065001600DB001700650017DA
:2007A00000DB001F00DA002A5DA9602D0094002E0094002E005F012E00DD0A2A573700C136
:2007C000003900C000390080013A000000815114B815114403000A000300140003001E00DF
:2007E0000300EA31222015722201542221401C888500403300E800330000023300180333DE
:2008000000430BA490480002012080400412092A3840A010012482480002400490092A388A
:2008200000C00001555552C00001555550500058005000FE005000A60E67014B011411402D
:20084000120156031201C2078000000492492492000000492ABA00A00040049209249209D0
:200860002000400A38000B126344926B449250330015013400350034006900340015013422
:2008800000DF0934000932670036008090000090000492000000492A97483A0035003A0033
:2008A000A7003A008E113A00CF25C701C101C801C1018490000002492080000412492ABA33
:2008C00040330033003300A0003300001033002925AF01B4017303DB001575565575542BFC
:2008E0000078002B0079002B00A30D83002D00A480002082490002000490492A384036008B
:2009000041003600AA00360003103600DC218303E2008303A501E22080788820003A003E8C
:20092000003A00BA0A75003E00F2003E000604710065007100C9007100930A1171006500C7
:20094000B002930AA410400082092080400412092A384080450027000701A400A3000202E9
:20096000A400159A9C520045025400FA00540044025500000016665D59995060005D006179
:20098000005D0061001F016100670DA000410492082492480000012B3D0060104004800981
:2009A0000000000010002082002000000A004100120024000000004000820800800000009A
:2009C00028002B0028007A002800B1144E019C0050019B0080004104120820800004124980
:2009E0002ABA000612494632612494605800590058005A005800B30058001123B1005A00BC
:200A00008000410412082000000492492ABA000C925346164929A2C058005A0058005B008E
:200A20005800B500B1005B00B1001023C44514046C445140447600790076000F0176008E9A
:200A40001202010F01C541111014446C54111101444409945365329985328A6CA653203170
:200A60000031003100320031009A013100FE01310026316492490000000002492A1249242B
:200A80000000000009249054005A005400080154008E0D5A015E015B015E0169241040034A
:200AA00012482080003A003C003A00090A76003C00ED003C00EE003C00A11861A1187A1116
:200AC000861A118630003400300099013000F8013000DD2880024000024000000124924850
:200AE0000ABA0035003C003500AF0035006F113500ED247C03C2017F03E1008010400882E3
:200B00000801C008200441040000300034003000A0003000900130001F091F039001A010EB
:200B2000000482492002000490492B3D003C0037003C00A3003C0003103C00E2253D00005E
:200B4000008203CD018403E6006010400480090000000010002010002080000A004100125B
:200B600000240000000040008040008200000028002A0028007C002800F9114501A3004678
:200B800001A3006082082410410012400480092A020820904104004900120024A808208279
:200BA000410410012400480092A0208209041040049001200248330037003300A1003300D2
:200BC000060A5103AD015103AE01A002480490012080400412092A3800380039003800AFC8
:200BE000003800361038001B258203E3008203C1015404100095010400101C005A001C00AC
:200C0000D3001C00CB09A080010412482400000092492B3D00A000090492402480000012F6
:200C2000492B3D0080124004000900124124820100104824AAE8350037003500A70035009F
:200C40000009350099247D03C0017F03BF016412082400082010092A104820900020804021
:200C60002490510057005100FE005100D00C4B0150014B015101A0004104920824904000EE
:200C800002092B3D00370037003700AC003700C70F37008424380000007403BA017503E1E1
:200CA00000D40015102500054409400151013300370033009E003300EE084903A3018490C9
:200CC000002080080000092492400ABA40350038003500AB0035006E0F35007F258203C349
:200CE000018403E2006400490092002082010410482A1001240248008208041041209038DC
:200D0000003A003800AA003800AB0F8203C2018403C1010994532994D985328A65329B201B
:200D2000310031003100320031009A013100FE0131004B2F649000049000008000041249E0
:200D40002A1240001240000200001049249032003E003200AC003200BD11C001D201C20111
:200D6000D10110924946330924946058005A0058005B005800B50058001023B1005B00A073
:200D800000010492482080400412092B3D00370039003700AA0037006D0F370097253800DE
:200DA00000008203C5018403E200155A656795659A9B955A656795659A991A00B9001B003F
:200DC00050001B00B9001B00C5116080000000080000002000000412480412482A0200000E
:200DE000000020000000800000104920104920802A002E002A0085002A005F1D5B01B00028
:200E00005B01B100D541110014446D541110014445320064003200C80032002003900190D4
:200E200001E22080788820103C003C003C008C0A78003C00F0003C006758035D003C006713
:200E4000580396007500634403D202AA005F1803CD00C4002F2002E900E100632603FE084C
:200E6000F9006B34031C010801632603D90B3001633403A8033F019B0802550153016326B3
:200E800003D90B65014726030C02740163260392018301632603D90BAA014B3003CB01B951
:200EA00001632603D90BDF01632603D90BEE014726030C02FD01632603C10824025F260303
:200EC00042023302632603D90B5A026334037D026902632603A0029102634403D202B80250
:200EE0006726038E0DE602632603C108F502632603D90B0403632603220313036728039A29
:200F0000083A036728039A084903632603C1085803632603D90B6703632603D90B76036732
:200F200028039A088503633403A80394036726038E0DBC036F2202D403CB03672603CD0CF5
:200F4000E4036726038E0DF303672603CD0C0204672603CD0C11046728032F0420046F162E
:200F6000036B0D430467440366044C046744028B047A04433402A8049B046F1403C004B8C7
:200F8000046726038E0DD804672603CD0CE7046726030505F6046B640343051D05672C038C
:200FA000680557056B6403A2057C056F1803EC09B6056F1803C805BF05632802EA05E005B8
:200FC000001B02D407FA05632603D90B0106672202190610066F1603EC092506632603D9D6
:200FE0000B2E065F340351063D06632603D90B6506632603D90B7406632603FE088306475B
:20100000080294069206672102A5069C06632603D90BB506631802CA06C406632603C10826
:20102000DA06672102F206E906434E0320070207453402110E3407632603D90B4107632685
:2010400003D90B5007632603D90B5F07632603D90B6E07632603D90B7D0777120393078CF1
:2010600007630E02AB07A7076B0802BD07BB07001B02D407CD07471C02F307E407471E021E
:20108000F307EB07632603D90B0308632603D90B12084730022D082108570B0240083D0897
:2010A000632603C1084808632603D90B57088717036F0866086728039A088B08632603C122
:2010C00008B208631802DF08D908632603FE08EF08331A021D0916096308022F092D0963AE
:2010E00004023C093B09632603D90B44095F0B02560953096B0B02650962095F16027B0931
:2011000075096726038E0D8B09676403C0099A09672603CD0CD4096F1803EC09E30967261A
:2011200003CD0C000A6F1603180A0F0A672402350A2C0A453402110E450A6522035F0A52D6
:201140000A673403870A730A671A03A50A9B0A632C02C40AB90A672603E30AD40A672603F4
:201160000A0BFB0A6726032D0B1E0B6764036F0B490B678803B60B830B632603D90BCA0B42
:20118000732202FA0BF10B6726038E0D060C6726038E0D150C673003360C240C6734036222
:2011A0000C4E0C672603850C760C673402AE0CA10C672603CD0CBE0C674403FF0CE50C65E0
:2011C0002203200D130D6744034E0D340D6F18036B0D620D6726038E0D7F0D674002BA0DBB
:2011E000AA0D6B6403F00DCA0D453402110E040E671A02280E210E00003A00370000003B52
:20120000003800F011E911E211DB11D411CD11C611BF11B811B111AA11A3119C1195118E77
:201220001187118011791172116B1164115D1156114F11481141113A1133112C1125111E76
:20124000111711101109110211FB10F410ED10E610DF10D810D110CA10C310BC10B510AE61
:2012600010A710A010991092108B1084107D1076106F10681061105A1053104C1045103E46
:201280001037103010291022101B1014100D100610FF0FF80FF10FEA0FE30FDC0FD50FCE2D
:2012A0000FC70FC00FB90FB20FAB0FA40F9D0F960F8F0F880F810F7A0F730F6C0F650F5E16
:2012C0000F570F500F490F420F3B0F340F2D0F260F1F0F180F110F0A0F030FFC0EF50EEEF8
:2012E0000EE70EE00ED90ED20ECB0EC40EBD0EB60EAF0EA80EA10E9A0E930E8C0E850E7EE6
:201300000E770E700E690E620E5B0E540E4D0E460E3F0E380E000039003600010101010154
:20132000010101020202020102040810204080040201080000000000000000000000000094
:2013400011241FBECFEFD2E0DEBFCDBF21E0A0E0B1E001C01D92A631B207E1F71FD154C2F2
:201360004FC6833079F028F4813081F0823089F00895873091F08830A1F08430B9F48FB510
:201380008F7D02C08FB58F778FBD089580B78F7702C080B78F7D80BF08958091CA008F774D
:2013A00003C08091CA008F7D8093CA000895CF93DF93E3E3F3E18491E7E2F3E1D491EBE1B8
:2013C000F3E1C491CC2389F08111CBDFEC2FF0E0EE0FFF1FEB5EFC4EA591B491EC91ED239F
:2013E00081E090E021F480E002C080E090E0DF91CF9108951F93CF93DF93282F30E0F901C1
:20140000ED5CFC4E8491F901E95DFC4ED491F901E55EFC4EC491CC23C1F0162F8111A1DF62
:20142000EC2FF0E0EE0FFF1FE350FE4EA591B4918FB7F894111105C09C91ED2FE095E92329
:2014400002C0EC91ED2BEC938FBFDF91CF911F910895CF93DF9390E0FC01E95DFC4E2491C5
:20146000FC01E55EFC4E8491882361F190E0880F991FFC01E950FE4EC591D491FC01E350A4
:20148000FE4EA591B491611109C09FB7F8948881209582238883EC912E230BC0623061F47A
:2014A0009FB7F8943881822F809583238883EC912E2B2C939FBF06C08FB7F894E8812E2BCD
:2014C00028838FBFDF91CF910895009741F02EE0000000002150E1F700000197F6CF08958D
:2014E00060E088E087DF88EB9BE0EFDF61E088E081CFCF93C82FF4DFC15021F088EA91E6F2
:20150000E4DFF9CFCF9108951F920F920FB60F9211242F933F938F939F93AF93BF938091C9
:20152000120190911301A0911401B09115013091110126E0230F2D3720F40296A11DB11D1F
:2015400005C029E8230F0396A11DB11D209311018093120190931301A0931401B09315019B
:2015600080910D0190910E01A0910F01B09110010196A11DB11D80930D0190930E01A093E0
:201580000F01B0931001BF91AF919F918F913F912F910F900FBE0F901F901895789480B7CD
:2015A000826080BF80B7816080BF83B7826083BF83B7816083BF89B7816089BF1EBC8EB572
:2015C00082608EBD8EB581608EBD8FB581608FBD8091C90084608093C9008091CA008160A8
:2015E0008093CA002A9A299A28982F9A1092850010BE13BE12BE18BE19BE16BE1CBE10926B
:201600006700109268001092660061E088E0F2DE60E083E0EFDE61E088E01BDF61E083E021
:2016200018DF62E080E015DF8091630081608093630088E893E149DF81E08093000186E06B
:2016400058DF02E1C0E0D0E019E8B1DE892B09F0C1C080E593EC39DF10930A01109209010C
:201660008091090190910A01891708F0ABC090E0880F991F8D5F9D4EFC0125913491F90118
:20168000A490A6BEACBE3196B4903196C4903196E590F4902B5F3F4FF901859194919093F2
:2016A000080180930701F894512CD12CF1E0CF1AD1085B1409F46AC0E0910701F0910801D4
:2016C0006091010190910201960180E02F3F4FEF3407E1F0911106C0AF014F5F5F4F6491DB
:2016E000FA0198E09150462F50E0092E02C0559547950A94E2F741705527022E01C0440F4A
:201700000A94EAF7842B21503109E0CF9093020160930101F0930801E093070190E0880F18
:20172000991F880F991FF701E80FF91F659074907092060160920501FC013296EE0DFF1DC5
:2017400085909490909204018092030112BE18BEAA2049F000BF81E083BF809166008460AD
:201760008093660003C061E083E044DEC301ADDE10BE13BE809166008B7F8093660060E03F
:2017800083E038DEC401A1DE539493CF789410920201A6DE84E190E598DE09DE892B61F4CE
:2017A00080E593EC92DE84E0A4DE8CED9FEF8DDE8CED9FEF8ADE0EC0809109018F5F809324
:2017C00009014ECF8CED9FEF80DE8CED9FEF7DDE88E08FDE80910B0190910C010196909341
:2017E0000C0180930B018115904149F460E088E001DE88EB9BE069DE61E088E0FBDD209725
:2018000009F423CFFDD320CFF894FFCFFFFFFFFFFFFFFFFFFFFFFFFFFFFFFFFFFFFFFFFFD4
:20182000FFFFFFFFFFFFFFFFFFFFFFFFFFFFFFFFFFFFFFFFFFFFFFFFFFFFFFFFFFFFFFFFC8
:20184000FFFFFFFFFFFFFFFFFFFFFFFFFFFFFFFFFFFFFFFFFFFFFFFFFFFFFFFFFFFFFFFFA8
:20186000FFFFFFFFFFFFFFFFFFFFFFFFFFFFFFFFFFFFFFFFFFFFFFFFFFFFFFFFFFFFFFFF88
:20188000FFFFFFFFFFFFFFFFFFFFFFFFFFFFFFFFFFFFFFFFFFFFFFFFFFFFFFFFFFFFFFFF68
:2018A000FFFFFFFFFFFFFFFFFFFFFFFFFFFFFFFFFFFFFFFFFFFFFFFFFFFFFFFFFFFFFFFF48
:2018C000FFFFFFFFFFFFFFFFFFFFFFFFFFFFFFFFFFFFFFFFFFFFFFFFFFFFFFFFFFFFFFFF28
:2018E000FFFFFFFFFFFFFFFFFFFFFFFFFFFFFFFFFFFFFFFFFFFFFFFFFFFFFFFFFFFFFFFF08
:20190000FFFFFFFFFFFFFFFFFFFFFFFFFFFFFFFFFFFFFFFFFFFFFFFFFFFFFFFFFFFFFFFFE7
:20192000FFFFFFFFFFFFFFFFFFFFFFFFFFFFFFFFFFFFFFFFFFFFFFFFFFFFFFFFFFFFFFFFC7
:20194000FFFFFFFFFFFFFFFFFFFFFFFFFFFFFFFFFFFFFFFFFFFFFFFFFFFFFFFFFFFFFFFFA7
:20196000FFFFFFFFFFFFFFFFFFFFFFFFFFFFFFFFFFFFFFFFFFFFFFFFFFFFDA00E1CCFFFFFC
:2019800017C0197A1085931509021200010100803209040000000000000012011001FF009F
:2019A0000008D01653070302000000010403090411241FBECFEFD2E0CDBFDEBF21E0A0E099
:2019C000B1E001C01D92AC32B207E1F7ACC1DC018FEF9FEF332715C02D912827722F2295AD
:2019E0002727822F26952695282723952270321777952795822F8927972F7695279597271C
:201A00008227615048F7809590950895E0DF8D939D930895CF93CFB7CF93C395B19BE9F7DC
:201A2000B19B09C0B19B07C0B19B05C0B19B03C0B19B01C0A7C0DF93C0910E01DD27CA5EEC
:201A4000DE4FB19B02C0DF91EBCF2F930F931F9306B32FEF01FB20F94F933F9316B34FEF64
:201A6000012701FB21F93BE031C04E7F012F16B3216028C0102F4D7F2260000006B329C0BE
:201A80004B7F2460012F000016B32BC016B3477F28602AC04F7E06B320612CC04F7D16B38B
:201AA00020622FC04F7B06B3206432C0422706B349934FEF0000102711FB20F916B31370D8
:201AC000C9F1297F91F2012701FB21F906B3237F89F2315058F1102711FB22F916B3277E77
:201AE00079F2012701FB23F92F7C81F206B3102711FB24F92F7971F200C016B3012701FB4C
:201B000025F92F7359F200C006B3102711FB26F9223040F200C016B3012701FB27F924303A
:201B200028F64F77206816B30000F9CF10E21ABF00271DC03B503195C31BD04010E21ABFCF
:201B40000881033C19F10B3409F120910C011981110F1213EDCF093641F10D3211F0013E31
:201B600039F7CAE01AB715FD02C0CA95D9F7009314013F914F911F910F912F91DF91CAB75E
:201B8000C5FD4BCFCF91CFBFCF91089520911401222379F3109112011123E1F43430E2F014
:201BA0003093120120930D0117C00091120101308CF40AE530910F0134FD10C000930F01FE
:201BC000C1E0D1E00FC02795A8F45150A9F4220F0000F9CF4AE503C042ED01C0432FC4E15C
:201BE000D0E032E017B31360C19A17BB08B320E413E05F93012756E008BB279520F4515083
:201C000021F4220FF9CF012756E000003B5A08BBD0F2279528F4515029F4220F0000F9CFAF
:201C2000012756E0279508BB20F4515021F4220FF9CF012756E02991332308BB21F60C7F31
:201C400010911301110FC651D04008BB11F010930C0110E21ABF026017B31C7F402F4C7F48
:201C60005F9100C000C008BB17BB48BB82CF2FEFB0E8A0E04AE0B093740000008EE599E008
:201C8000B199FECFB19BFECF0197B199FDCF97FF03C0BA1B819501C0BA0FA69541F4A0E4A4
:201CA00030F4281718F030917400282FA1E0415011F73093740000000895F201309749F04C
:201CC0002AE7421629E1520631F48091740090E002C08FEB9CEC21E00C0120935700E895C6
:201CE0001124CF0102962C01089514BE88ED8093710087E081BDB99A2FE78CEF9AE021503E
:201D000080409040E1F700C00000B9988AE580930F018FEF8093000180B5816080BD8BB791
:201D200080628BBF089580917400282EEAE7F9E1E491EF3F19F0E0937400000004B601FC0A
:201D400006C0EDE7F9E1E491EF3F09F03DC1CDDFC298712C312C412C512CC0EADFE014E628
:201D600086B3837009F014E6115029F41092130110920C017CDF0AB605FE05C04BDE80E2F3
:201D80008ABF712C04C0219759F7C0E0D0E0A895809174002092740022E032120CC0E0E87F
:201DA000F9E1E054F10993E090935700E8953097C1F7412C512C90E439120AC0F201329703
:201DC000E03829E1F20720F495E090935700E8958093740084E0381203C0CD2B11F4F0C0C3
:201DE000312C80911201835087FD99C090910D019D3209F092C0883009F08FC083EC8093E7
:201E000001018AE580930F0180911701807690911801882379F1911108C082E899E190934F
:201E200011018093100186E06DC0913069F441145104F1F080911B01807F482E50901C0191
:201E400081E187BFE89514C0933081F48091190190911A0132DF80911B0190911C012DDF62
:201E6000842D8F7029F490E4392E4CC09F73392E80E048C08091190110920A01911106C08D
:201E800010920B012AE031E082E038C0953019F48093130125C09630E9F490911A019130A1
:201EA00019F48AE999E104C0923041F488E899E1909311018093100182E124C09330C1F669
:201EC0008111D6CF8CEA99E1909311018093100184E018C0983079F0993031F480931501FE
:201EE0002AE031E080E00AC081E09A3009F080E02AE031E003C025E131E081E030931101EE
:201F00002093100190911E01911105C090911D01981708F4892F80930001109212018091DA
:201F20000F0184FF31C0809100018F3F69F1C82F893008F0C8E08C1B8093000190910101B5
:201F400088E8892780930101CC2391F080911001A2E0B1E0E82FF091110194919D933196E1
:201F60009C2F980F9E13F9CFF0931101E09310016C2F82E091E04ADDCC5FCC3019F08FEF1A
:201F800080930001C0930F01C30101963C01803B944029F4EDE7F9E1E491EF3F89F4862D05
:201FA0008C7411F0BA9801C0BA9A0AB605FED5CE85E1B19B85E18150E1F780E28ABFCDCE4C
:121FC000BA9893DE1BBE10BC209274000000D6CCFFCF11
:00000001FF
