:20000000BFCC7DC97CC97BC97AC979C978C977C976C975C974C947CA72C971C970C96FC9CF
:200020006EC96DC96CC96BC96AC969C968C967C966C965C964C963C962C961C964924A24B5
:2000400092E3249251249600000000000E008D000E00C4010E005F020E00A6180560540404
:20006000000C040400E3050400BD0B14954A359A4AA51B0056005B0057005A005700B4007F
:200080005700A42258000000AE005A00A000000492492400000092492B3D00544546544585
:2000A00044060036020600530306004414400A83800A810D00EA010D00E5020D00E6020D3E
:2000C0000033175554125554110550060550045555425555410E00EB010E00E7020E004A8D
:2000E000104700000000008C8C4003E3EB231000F8F44700000000008C8C4003F1EB2310B0
:2001000000FC7432003200320063003200FB003200FC003200A9053200062B6600310066DB
:2001200000620005C4599800D7019A009C009A00D5019A000E039A00830B4440564440559F
:20014000A000000492492000000492492B3D008480002082490002000490492A92000082AD
:200160000924000800124124B0370038003700A8003700590F380000007203C6017403C487
:200180000180104008924801C0082004492400003200360032009E003200970132006908AD
:2001A0004B0397016AA00BAAA0090D00EA010D00E5020D00E6020D00431504A492492249BD
:2001C0004892492492492494896894924924492912492492492492913064000924000924C0
:2001E00000092A1000249000249000249009249249124A2492492492492494896924924995
:2002000022494492492492492492913013004E0015001B0015004D001500C90E16000000E9
:200220004444024444010E00EB010E00E7020E0036152A9A9BAA9A9A2C002F032D00100287
:200240002D002F032D00691222001A10004031003500310006013100080131005E1F640021
:2002600067008001002E000400800300090003001F0003002A000300CD2A84920124120042
:200280000480080992480490480012002026492012412000480082300062003000C400612E
:2002A0000044038B0184018B078501049249263471449AD1C5124846802334008080020037
:2002C0000002000492000000492A9748370037003700A70037009F1337002225C001BD0102
:2002E000C201BC0122801A180110C002310034003100FA003100FC00310049093100E92E4F
:2003000064003400640066006410000410000080000412492A1040001040000200001049EF
:200320002490380037003800A8003800F212BF01C501C001C50119955E6655501800B90089
:200340001B004E001B00B7001B0006064554164554150E00EB010E00E7020E000E12620855
:20036000A08A190408408310004F0310000C1711002F0211004E0311004F030B12492492B3
:20038000498D1C8927FCAB472249FF2AD1C8927FC9003000F60032002F0032005E0032007D
:2003A000F5003200D0053200DA2A64002F0064005E008410002090010080400412092ABAAE
:2003C000404440024440010E00EB010E00E7020E00F916299A9BA99A9A2C002F032D0010EE
:2003E000022D002F032D0088134554024554015550065550050E00EB010E00E7020E004209
:2004000012800400B8554008468000000003445200000C222290000060802E0035002E0041
:200420006A002E0004012E00DE052E00D22A5D0035005D006A00800100B8551008030008DA
:20044000000300120003001C000300BB3119AB59A904944B24953524A25924A8400D00604A
:20046000020E008D000E0028010E00C3010E005E020E0060020E003F182AAB6AAA60808842
:200480000000E30404400006030008000300120003001800030026000300F126159A945713
:2004A000007F025800130158007F0248800E220010300032003000940030009500300090C3
:2004C000058001002E000400A00F008A000F00BE010F005D020F00A5196000880002E30055
:2004E00004400016030009000300130003001D00030027000300F02684104008820801C2F4
:20050000082004410400404554424554410E00EB010E00E7020E000A135550025550010EFE
:2005200000EB010E00E7020E00061445865B05C65B05B0421000530311002A021100520364
:20054000110053031100EF1284824008924801C241200449240040300034003000A00030C1
:20056000009001300048081F0390016AA003AAA0011000E4011000E2021000E3021000BBB6
:20058000120E382182262082482310002F0210004F0310000C1711002F0211004F036082D0
:2005A000082410410482400010092A02082090410412090000402480330038003300A20077
:2005C00033001A0B5003AE015203AD011A5A65679A659A9B9A5A65679A659A9B9A5A656598
:2005E0001A00B9001B0050001B00B9001B0099106000002010090402010090482A00000083
:2006000080402410080402412080370039003700A700370040117F03C0018103BF0160003A
:20062000002480090492000000492A0000009200241248000001248035003B003500AA0000
:20064000350007117C03C0017D03C001900D0006009D0306003B05060032080600E30A040C
:200660009249263251C89AC94722482A9A9BAA9A9A0E004B0310002B021000490310002FA9
:200680001305454605454406003602060053030600621504924928C64924925180580059C4
:2006A0000058005A005800B30058001123B1005A00195759555545465545440500380205C6
:2006C000005603050087134544564544550E00EB010E00E7020E0046111454061454040530
:2006E00054060554040400F3010400EE0204008713049249263449389AD124E2483100070E
:20070000013200360032006C00320007013200ED073200D72764006E004124125E00D901C1
:200720005E00D802660065068482000482000082000410492A874104924926324A389AC937
:2007400028E2482F000B013200370032006E0032000901320007083200552F6400700004F8
:200760009249263251CBD64A39722F000B013200370032006E00320009013200070832006C
:20078000552F64003900640070008000002490410082000410492ABA0025999A5AE96666C5
:2007A00096A010925424B30925424825599A5AE9566696A032009E003500330035009C0028
:2007C000350084082636016502360166026E0278208000002410490082000410492ABA002D
:2007E0002670006B0071006B00A502CE0A8000002092490002400490092ABA00401A2300E2
:20080000D0803100350031006800310006013100080131005E1F6400670026AB66AA1A9A09
:200820009B9A9A991000460311002E02110047031100B8186082002080410490412A0208AE
:20084000008201041241048054005800540005015400200D5B015B015B015C0160000000E2
:2008600012492492428000000012492492405B0058005B000B015B00250E69016601690171
:2008800067018092000092000010400482092A9748370037003700A7003700E11137002296
:2008A00025C001BD01C201BC018000002482490480400012092ABA0041241241000300F037
:2008C000010300E9020300D00516AB56A90F00ED011000ED011000BA021000860516E590A4
:2008E0009800D7019A009C009A00D5019A00830BA002010490482000000492492B3D0010C4
:200900000D047810100400008000002492090082000410492ABA000CB2CA49130B2CB292C9
:2009200044B02E002C0131002A01310088023100E5033100F00B6090402080402090412AE1
:2009400002410082010082410480550059005500080155004A0D5B015E015C015E016A826F
:2009600083AA82810D00BD010D00A2020D00A3020D00E7110560540300EA030300D7050389
:2009800000F30B4550024550010E00EB010E00E7020E003A14A400490092002002000490AA
:2009A000492B3D00A002400490092002000490492B3D002A5DA96030009600320095003251
:2009C000005B013200780B1A56A5D695A9403100CD003100CE003100C80131006A0ED550D8
:2009E0001511655405445955015115350035003500A0003500A1064603A601A01000048279
:200A0000492002000490492B3D00470000000004646200E0002B23100700008032003200EC
:200A2000320063003200FB003200FC003200A5053200062B66003100660062000492492623
:200A40003472249AD1C892482F000B013200370032006E0032000901320007083200552F48
:200A600064003900A082082410410410012082480B3D005540425540410E00EB010E00E757
:200A8000020E003E134700233C0159E00431003400310066003100FA003100FC0031004943
:200AA000093100E92E6400340064006600A002480490012000400492092B3D0080024000DB
:200AC00002400000012492480ABA0035003C003500AF0035006F113500ED247C03C2017F00
:200AE00003E100A480410012082490400002092B3D008480002082490002000490492ABA7A
:200B00004022200001C88800004030002D0130008B023000E9033000B90B8080000812403D
:200B200001C0400004092000003200360032009E003200A20132008B094B03A201A00248D9
:200B40000490012012400480092B3D001A9A9B9A9A990F004C0310002D0210004C03100071
:200B6000681468082000EA020800101C005C001C00D5001C00D6001C00D30A6082082410F3
:200B8000410012400480092A020820904104004900120024A8082082410410012400480079
:200BA00092A02082090410400490012002483500360035009C003500EE095303A901550345
:200BC000A80180104008820801C008200441040000300034003000A0003000900130001F94
:200BE000091F039001D455000040155400015556D45500004015540001555535003B003599
:200C000000AB003500FE087F03C101050151814054402E00CE002E00CB012E00770D8400D2
:200C2000480402010480090012402ABA40350038003500AB0035006E0F35007F258203C342
:200C4000018403E200A000010492482080400412092B3D0010924946330924946058005A0D
:200C60000058005B005800B50058001023B1005B00A000410492082490400002092B3D0037
:200C8000370039003700AA0037006D0F37009725380000008203C5018403E200D400151078
:200CA0002500054409400151013200360032009F00320003094603A601849000049000001B
:200CC00080000412492A124000124000020000104924B035003F003500AC003500781136EF
:200CE000000000C701D40104925228928C44928945245344925228928C449289452451186F
:200D000000BE00190050001900BE00190067101900BF12608000000008000000200000044F
:200D200012480412482A020000000020000000800000104920104920802C002D002C0083B5
:200D4000002C00261D5A01B0005A01B200E22080788820103C003C003C008C0A78003C005C
:200D6000F0003C001A56A6D695A9902B00CE002E00CC002E00C8012E00A00D04924926358E
:200D800089249AD62492482F0009013300360033006C00330007013300050833007F2D6439
:200DA000006D00A40800000000642C408000000006412B002F002B005B002B00842058007C
:200DC0002F008500850008015A0008015B00001E0348003C00000B025F005C006F160374AA
:200DE000006B00672603800C8C00001702A1009B00631802B300AD00671802CD06C3000097
:200E00001702E506C900671802D500CF00672D030301E100672D030301F2005F0803260146
:200E200023016718021F053A01672603800C400167440369014F01672603900181016318CB
:200E400002AA01A4016752030C02BA016734034808D9016752030C02ED0167180226022072
:200E600002731802380232027F0E034E024802001D026A026202434D0397027A02831F030F
:200E8000480AAB027F0E030208B702672803CC02BD027F1503EC02E4026744032203080398
:200EA0006716023C03360367180252034C0377180367035E03673B0392037B036726032D44
:200EC0000CB203671802C703C103731802D903D3036718021F05E903671802F503EF030007
:200EE0001B023D0401046F2E031A040804001B023D043604731002CD084D04671E035D0499
:200F00005104731002CD087904001D0388047D046F0B029F049C04631602B104AB04671E55
:200F200002C904C104001D03E404D904672603D10BF8046718020D0507056718021F051973
:200F40000577180334052B056726035705480567180271056B057718038A058105634403A0
:200F6000B8059E05675002E005CC056744030A06F00567440338061E06000C024F064C062A
:200F8000831F03480A5F0667180271066B06001702870681066F1A039D069306731002CD45
:200FA00008B106001702BB06B506671802CD06C706001702E506D906001702E506DF066789
:200FC0001F03FD06F106670C021C07190767280391082807831F0343073707831D036A07A2
:200FE0005F076726032D0C8A07672202B40799076F18035D0CA207672202B407AB075F0454
:2010000002C507C4076726032D0CD107670402E107E0076726032D0CED077F0E030208FC07
:2010200007731002CD081A087F180224081E08673403480834087730036E085C0867280302
:20104000910882086726032D0CA908001102BD08B808731002CD08C9085F0A02E008DD08F8
:20106000672603800CF0085F02020009FF086726032D0C0809771C03220917096F34034A3E
:2010800009360963180264095E09000B027709740967180289098309672603800C950967ED
:2010A0002603800CA409670E02B709B309771A02CE09C709673402EB09DE09672603800C0D
:2010C000FB09732E031C0A0A0A831F03480A3C0A672603800C640A671802790A730A7F1552
:2010E000038D0A850A672603800CAD0A672603CB0ABC0A672603800CE30A6726032D0CF205
:201100000A6F22020A0B010B672603290B1A0B672603800C3D0B771802520B4C0B772202E4
:201120006B0B620B678803AE0B7B0B672603D10BC20B675802FB0BE50B771A02120C0B0CE3
:201140006726032D0C1E0C672603800C450C6F18035D0C540C672603800C710C673402A9FD
:201160000C9C0C674403D30CB90C674003FF0CE70C6B6403390D130D671A02540D4D0D77D4
:201180001A026B0D640D831F03870D7B0D6F2803B20DA30D00003A00370000003B0038009C
:2011A0008D1186117F11781171116A1163115C1155114E1147114011391132112B11241197
:2011C0001D1116110F1108110111FA10F310EC10E510DE10D710D010C910C210BB10B41082
:2011E000AD10A6109F10981091108A1083107C1075106E1067106010591052104B10441067
:201200003D1036102F10281021101A1013100C100510FE0FF70FF00FE90FE20FDB0FD40F4D
:20122000CD0FC60FBF0FB80FB10FAA0FA30F9C0F950F8E0F870F800F790F720F6B0F640F36
:201240005D0F560F4F0F480F410F3A0F330F2C0F250F1E0F170F100F090F020FFB0EF40E18
:20126000ED0EE60EDF0ED80ED10ECA0EC30EBC0EB50EAE0EA70EA00E990E920E8B0E840E06
:201280007D0E760E6F0E680E610E5A0E530E4C0E450E3E0E370E300E290E220E1B0E140EE6
:2012A0000D0E060EFF0DF80DF10DEA0DE30DDC0DD50DCE0D000039003600010101010101EE
:2012C0000101020202020102040810204080040201080000000000000000000000001124C1
:2012E0001FBECFEFD2E0DEBFCDBF21E0A0E0B1E001C01D92A631B207E1F71FD153C280C643
:20130000833079F028F4813081F0823089F00895873091F08830A1F08430B9F48FB58F7D79
:2013200002C08FB58F778FBD089580B78F7702C080B78F7D80BF08958091CA008F7703C0F6
:201340008091CA008F7D8093CA000895CF93DF93E2EDF2E18491E6ECF2E1D491EAEBF2E1EF
:20136000C491CC2389F08111CBDFEC2FF0E0EE0FFF1FEC54FD4EA591B491EC91ED2381E07A
:2013800090E021F480E002C080E090E0DF91CF9108951F93CF93DF93282F30E0F901EE5242
:2013A000FD4E8491F901EA53FD4ED491F901E654FD4EC491CC23C1F0162F8111A1DFEC2F00
:2013C000F0E0EE0FFF1FE656FE4EA591B4918FB7F894111105C09C91ED2FE095E92302C0DA
:2013E000EC91ED2BEC938FBFDF91CF911F910895CF93DF9390E0FC01EA53FD4E2491FC01F3
:20140000E654FD4E8491882361F190E0880F991FFC01EC56FE4EC591D491FC01E656FE4EAB
:20142000A591B491611109C09FB7F8948881209582238883EC912E230BC0623061F49FB7D0
:20144000F8943881822F809583238883EC912E2B2C939FBF06C08FB7F894E8812E2B2883D8
:201460008FBFDF91CF910895009741F02EE0000000002150E1F700000197F6CF089560E058
:2014800088E087DF88EB9BE0EFDF61E088E081CFCF93C82FF4DFC15021F088EA91E6E4DFCF
:2014A000F9CFCF9108951F920F920FB60F9211242F933F938F939F93AF93BF9380911201DA
:2014C00090911301A0911401B09115013091110126E0230F2D3720F40296A11DB11D05C0CE
:2014E00029E8230F0396A11DB11D209311018093120190931301A0931401B09315018091B0
:201500000D0190910E01A0910F01B09110010196A11DB11D80930D0190930E01A0930F0141
:20152000B0931001BF91AF919F918F913F912F910F900FBE0F901F901895789480B782605B
:2015400080BF80B7816080BF83B7826083BF83B7816083BF89B7816089BF1EBC8EB58260D2
:201560008EBD8EB581608EBD8FB581608FBD8091C90084608093C9008091CA0081608093D7
:20158000CA002A9A299A28982F9A1092850010BE13BE12BE18BE19BE16BE1CBE1092670077
:2015A000109268001092660061E088E0F2DE60E083E0EFDE61E088E01BDF61E083E018DFF2
:2015C00062E080E015DF8091630081608093630088E893E149DF1092000183E059DF02E17D
:2015E000C0E0D0E01AE8B2DE892B09F0C1C080E593EC3ADF10930A01109209018091090169
:2016000090910A01891708F0ABC090E0880F991F80569E4EFC0125913491F901A490A6BE10
:20162000ACBE3196B4903196C4903196E590F4902B5F3F4FF90185919491909308018093CE
:201640000701F894512CD12CF1E0CF1AD1085B1409F46AC0E0910701F0910801609101015D
:2016600090910201960180E02F3F4FEF3407E1F0911106C0AF014F5F5F4F6491FA0198E0BB
:201680009150462F50E0092E02C0559547950A94E2F741705527022E01C0440F0A94EAF79E
:2016A000842B21503109E0CF9093020160930101F0930801E093070190E0880F991F880FA9
:2016C000991FF701E80FF91F659074907092060160920501FC013296EE0DFF1D859094903C
:2016E000909204018092030112BE18BEAA2049F000BF81E083BF80916600846080936600CE
:2017000003C061E083E045DEC301AEDE10BE13BE809166008B7F8093660060E083E039DE9C
:20172000C401A2DE539493CF789410920201A7DE84E190E599DE0ADE892B61F480E593ECBF
:2017400093DE84E0A5DE8CED9FEF8EDE8CED9FEF8BDE0EC0809109018F5F809309014ECF3D
:201760008CED9FEF81DE8CED9FEF7EDE88E090DE80910B0190910C01019690930C018093A5
:201780000B018115904149F460E088E002DE88EB9BE06ADE61E088E0FCDD209709F423CFB3
:2017A0002FD420CFF894FFCFFFFFFFFFFFFFFFFFFFFFFFFFFFFFFFFFFFFFFFFFFFFFFFFFF5
:2017C000FFFFFFFFFFFFFFFFFFFFFFFFFFFFFFFFFFFFFFFFFFFFFFFFFFFFFFFFFFFFFFFF29
:2017E000FFFFFFFFFFFFFFFFFFFFFFFFFFFFFFFFFFFFFFFFFFFFFFFFFFFFFFFFFFFFFFFF09
:20180000FFFFFFFFFFFFFFFFFFFFFFFFFFFFFFFFFFFFFFFFFFFFFFFFFFFFFFFFFFFFFFFFE8
:20182000FFFFFFFFFFFFFFFFFFFFFFFFFFFFFFFFFFFFFFFFFFFFFFFFFFFFFFFFFFFFFFFFC8
:20184000FFFFFFFFFFFFFFFFFFFFFFFFFFFFFFFFFFFFFFFFFFFFFFFFFFFFFFFFFFFFFFFFA8
:20186000FFFFFFFFFFFFFFFFFFFFFFFFFFFFFFFFFFFFFFFFFFFFFFFFFFFFFFFFFFFFFFFF88
:20188000FFFFFFFFFFFFFFFFFFFFFFFFFFFFFFFFFFFFFFFFFFFFFFFFFFFFFFFFFFFFFFFF68
:2018A000FFFFFFFFFFFFFFFFFFFFFFFFFFFFFFFFFFFFFFFFFFFFFFFFFFFFFFFFFFFFFFFF48
:2018C000FFFFFFFFFFFFFFFFFFFFFFFFFFFFFFFFFFFFFFFFFFFFFFFFFFFFFFFFFFFFFFFF28
:2018E000FFFFFFFFFFFFFFFFFFFFFFFFFFFFFFFFFFFFFFFFFFFFFFFFFFFFFFFFFFFFFFFF08
:20190000FFFFFFFFFFFFFFFFFFFFFFFFFFFFFFFFFFFFFFFFFFFFFFFFFFFFFFFFFFFFFFFFE7
:20192000FFFFFFFFFFFFFFFFFFFFFFFFFFFFFFFFFFFFFFFFFFFFFFFFFFFFFFFFFFFFFFFFC7
:20194000FFFFFFFFFFFFFFFFFFFFFFFFFFFFFFFFFFFFFFFFFFFFFFFFFFFFFFFFFFFFFFFFA7
:20196000FFFFFFFFFFFFFFFFFFFFFFFFFFFFFFFFFFFFFFFFFFFFFFFFFFFFDA00B0CCFFFF2D
:2019800017C0197A1085931509021200010100803209040000000000000012011001FF009F
:2019A0000008D01653070302000000010403090411241FBECFEFD2E0CDBFDEBF21E0A0E099
:2019C000B1E001C01D92AC32B207E1F7ACC1DC018FEF9FEF332715C02D912827722F2295AD
:2019E0002727822F26952695282723952270321777952795822F8927972F7695279597271C
:201A00008227615048F7809590950895E0DF8D939D930895CF93CFB7CF93C395B19BE9F7DC
:201A2000B19B09C0B19B07C0B19B05C0B19B03C0B19B01C0A7C0DF93C0910E01DD27CA5EEC
:201A4000DE4FB19B02C0DF91EBCF2F930F931F9306B32FEF01FB20F94F933F9316B34FEF64
:201A6000012701FB21F93BE031C04E7F012F16B3216028C0102F4D7F2260000006B329C0BE
:201A80004B7F2460012F000016B32BC016B3477F28602AC04F7E06B320612CC04F7D16B38B
:201AA00020622FC04F7B06B3206432C0422706B349934FEF0000102711FB20F916B31370D8
:201AC000C9F1297F91F2012701FB21F906B3237F89F2315058F1102711FB22F916B3277E77
:201AE00079F2012701FB23F92F7C81F206B3102711FB24F92F7971F200C016B3012701FB4C
:201B000025F92F7359F200C006B3102711FB26F9223040F200C016B3012701FB27F924303A
:201B200028F64F77206816B30000F9CF10E21ABF00271DC03B503195C31BD04010E21ABFCF
:201B40000881033C19F10B3409F120910C011981110F1213EDCF093641F10D3211F0013E31
:201B600039F7CAE01AB715FD02C0CA95D9F7009314013F914F911F910F912F91DF91CAB75E
:201B8000C5FD4BCFCF91CFBFCF91089520911401222379F3109112011123E1F43430E2F014
:201BA0003093120120930D0117C00091120101308CF40AE530910F0134FD10C000930F01FE
:201BC000C1E0D1E00FC02795A8F45150A9F4220F0000F9CF4AE503C042ED01C0432FC4E15C
:201BE000D0E032E017B31360C19A17BB08B320E413E05F93012756E008BB279520F4515083
:201C000021F4220FF9CF012756E000003B5A08BBD0F2279528F4515029F4220F0000F9CFAF
:201C2000012756E0279508BB20F4515021F4220FF9CF012756E02991332308BB21F60C7F31
:201C400010911301110FC651D04008BB11F010930C0110E21ABF026017B31C7F402F4C7F48
:201C60005F9100C000C008BB17BB48BB82CF2FEFB0E8A0E04AE0B093740000008EE599E008
:201C8000B199FECFB19BFECF0197B199FDCF97FF03C0BA1B819501C0BA0FA69541F4A0E4A4
:201CA00030F4281718F030917400282FA1E0415011F73093740000000895F201309749F04C
:201CC0002AE7421629E1520631F48091740090E002C08FEB9CEC21E00C0120935700E895C6
:201CE0001124CF0102962C01089514BE88ED8093710087E081BDB99A2FE78CEF9AE021503E
:201D000080409040E1F700C00000B9988AE580930F018FEF8093000180B5816080BD8BB791
:201D200080628BBF089580917400282EEAE7F9E1E491EF3F19F0E0937400000004B601FC0A
:201D400006C0EDE7F9E1E491EF3F09F03DC1CDDFC298712C312C412C512CC0EADFE014E628
:201D600086B3837009F014E6115029F41092130110920C017CDF0AB605FE05C04BDE80E2F3
:201D80008ABF712C04C0219759F7C0E0D0E0A895809174002092740022E032120CC0E0E87F
:201DA000F9E1E054F10993E090935700E8953097C1F7412C512C90E439120AC0F201329703
:201DC000E03829E1F20720F495E090935700E8958093740084E0381203C0CD2B11F4F0C0C3
:201DE000312C80911201835087FD99C090910D019D3209F092C0883009F08FC083EC8093E7
:201E000001018AE580930F0180911701807690911801882379F1911108C082E899E190934F
:201E200011018093100186E06DC0913069F441145104F1F080911B01807F482E50901C0191
:201E400081E187BFE89514C0933081F48091190190911A0132DF80911B0190911C012DDF62
:201E6000842D8F7029F490E4392E4CC09F73392E80E048C08091190110920A01911106C08D
:201E800010920B012AE031E082E038C0953019F48093130125C09630E9F490911A019130A1
:201EA00019F48AE999E104C0923041F488E899E1909311018093100182E124C09330C1F669
:201EC0008111D6CF8CEA99E1909311018093100184E018C0983079F0993031F480931501FE
:201EE0002AE031E080E00AC081E09A3009F080E02AE031E003C025E131E081E030931101EE
:201F00002093100190911E01911105C090911D01981708F4892F80930001109212018091DA
:201F20000F0184FF31C0809100018F3F69F1C82F893008F0C8E08C1B8093000190910101B5
:201F400088E8892780930101CC2391F080911001A2E0B1E0E82FF091110194919D933196E1
:201F60009C2F980F9E13F9CFF0931101E09310016C2F82E091E04ADDCC5FCC3019F08FEF1A
:201F800080930001C0930F01C30101963C01803B944029F4EDE7F9E1E491EF3F89F4862D05
:201FA0008C7411F0BA9801C0BA9A0AB605FED5CE85E1B19B85E18150E1F780E28ABFCDCE4C
:121FC000BA9893DE1BBE10BC209274000000D6CCFFCF11
:00000001FF
